:100000000C9434000C9497050C9451000C945100FE
:100010000C9451000C9451000C9451000C9451001C
:100020000C9451000C9451000C9451000C9451000C
:100030000C9451000C9451000C9451000C945100FC
:100040000C94FC030C9451000C94B0040C94D80450
:100050000C9412050C9451000C9451000C94510016
:100060000C9451000C94510011241FBECFEFD8E026
:10007000DEBFCDBF11E0A0E0B1E0E6EDFEE002C0E2
:1000800005900D92A231B107D9F722E0A2E1B1E0CB
:1000900001C01D92A73CB207E1F70E94A3000C9497
:1000A00069070C94000080E68AB98BB180628BB935
:1000B0008BB180648BB984E084B980E887B988B15A
:1000C0008F6188B90895BC0180E090E00E944107EB
:1000D000089580E090E00E943B0708950F931F93DE
:1000E000CF93C82F809127018C1769F00E94740468
:1000F000609323017093240180932501909326013E
:10010000C09327011AC00E9474040091230110912A
:1001100024012091250130912601DC01CB01801BB7
:10012000910BA20BB30B883B9B40A105B10528F0B6
:1001300080912201C813C093220180912201CF91A6
:100140001F910F91089578940E94530060E875E222
:1001500080E090E00E942A050E9457040E94D30587
:100160000E946900EC01845B91098D3D910530F09E
:1001700080E991E00E946300C0E9D1E001E02BE258
:1001800030E04AE250E069E270E080E00E946A03F9
:1001900086B180958F71809300010E947404F62EC1
:1001A00010E00F2EF0E9AF2EBB24B394F02D0E9487
:1001B0007404D62E862F90E08F199109C2971CF0F7
:1001C0000E948C05FD2C80914402882369F11092D5
:1001D0004402609145027091460280E090E00E94E6
:1001E00015062FEB3BE345E95CE30E947B060E948A
:1001F000E6055B01C61BD70B81E0CA35D10508F4C3
:1002000080E00E946E0080933801882339F08BB122
:1002100080648BB98BB18F7D8BB906C08BB18F7B1E
:100220008BB98BB180628BB90E94A303E50184EB8B
:10023000A816B10410F4C4EBD0E0CE010E94630014
:1002400029C00E946105843221F48093120111E0DB
:1002500021C08A3089F4E1E0E10FA12FB0E0AE5E69
:10026000BE4F8C93F0E0EE5EFE4F108282E191E093
:100270000E94160310E00EC0112361F091E0910F6F
:10028000E12FF0E0EE5EFE4F8083903110F4192FE5
:1002900001C010E00E9476058111D3CF8FE99FE065
:1002A0000197F1F700C0000082CF90ED980F9A30CF
:1002B00010F4892F08959FEB980F963010F4875310
:1002C00008958FEF08950F931F93CF938C01FC0136
:1002D00080810E945501C82FF80181810E9455013B
:1002E000CC2344F0882344F0F0E1CF0290011124A4
:1002F000822B03C080E001C080E0CF911F910F915D
:100300000895AC0190E080E006C0FA01E90FF11D0C
:100310002081820F9F5F9617C0F308954F925F92DE
:100320007F928F929F92AF92BF92CF92DF92EF9285
:100330000F931F93CF93DF93CDB7DEB728970FB6F8
:10034000F894DEBF0FBECDBF009709F482C06115DF
:10035000710509F480C0FC0101900020E9F7319794
:10036000E81BF90B2E2FE93008F477C0DC013C9133
:10037000343219F03A3309F072C0FF273197E80F91
:10038000F91F40814A3009F06CC0FC011381173518
:1003900019F0123509F067C0343211F4173521F025
:1003A0003A3321F4123511F42B3079F0343211F450
:1003B000123531F03A3309F058C0173509F057C0FB
:1003C000293009F056C0E12C02C0EE24E394EE205F
:1003D00011F007E001C005E02B015C01C02ED12C1B
:1003E0004C01FFEF8F1A9F0AA601B401CE010196BE
:1003F0000E943207E1E0F0E0EC0FFD1FEC0DFD1D67
:100400001082602FCE0101960E948101782EC601D4
:1004100001968A0D9B1D0E94630178122CC0C401B5
:100420000E946301D2018C9311961C93C50104961E
:100430000E946301F2018283EE2029F0C501069635
:100440000E94630101C080E0D20113968C9381E089
:1004500013C080E011C080E00FC080E00DC080E0DC
:100460000BC080E009C080E007C080E005C080E0EC
:1004700003C080E001C080E028960FB6F894DEBF8C
:100480000FBECDBFDF91CF911F910F91EF90DF9005
:10049000CF90BF90AF909F908F907F905F904F9044
:1004A0000895CF93DF93CDB7DEB761970FB6F89479
:1004B000DEBF0FBECDBF91E1E1E0F1E0DE011196BC
:1004C00001900D929A95E1F7982F92959F70E1E037
:1004D000F0E0EC0FFD1FE90FF11D9081FB0190830F
:1004E0008F70E1E0F0E0EC0FFD1FE80FF11D80815F
:1004F000FB01818361960FB6F894DEBF0FBECDBFBE
:10050000DF91CF910895AF92BF92CF92DF92EF9299
:10051000FF920F931F93CF93DF93CDB7DEB728974A
:100520000FB6F894DEBF0FBECDBF6C018B01442324
:1005300011F08AE301C084E2F80181935F01BF01F9
:10054000F60180810E945102F6018181F8018383C6
:10055000B8016C5F7F4FF60182810E945102F80161
:100560008081843221F4F6019181973531F08A330C
:1005700081F4F6018181823591F4B8016A5F7F4F81
:10058000F60183810E94510281E06894FF24F3F810
:100590000BC080E00F2EF6E0FF2EF02D05C080E0AE
:1005A0000F2EF6E0FF2EF02D882329F00F2EF7E016
:1005B000EF2EF02D04C00F2EF5E0EF2EF02DCE2CF7
:1005C000D12CA601B501CE0101960E943207E1E0CF
:1005D000F0E0EC0FFD1FEC0DFD1D10826E2DCE0125
:1005E00001960E948101B8016F0D711D0E94510298
:1005F00092E09F0D83E08F0DF801E90FF11D9AE065
:100600009083F801E80FF11D108228960FB6F89438
:10061000DEBF0FBECDBFDF91CF911F910F91FF9035
:10062000EF90DF90CF90BF90AF900895CF93DF937E
:10063000CDB7DEB765970FB6F894DEBF0FBECDBF5E
:10064000BE016F5F7F4F0E948E018823D1F18981A7
:1006500090910001891335C09A819735C9F49B8127
:10066000E92FF0E02C81E85DFE4F20838A8B87E53F
:100670008B8B9C8B1D8A41E0BE016B5F7F4FCE014F
:1006800042960E948302CE0105960E947F0519C002
:100690009235B9F49B81E92FF0E0E85DFE4F2081AF
:1006A0008A8B82E58B8B9C8B2D8B41E0BE016B5F2F
:1006B0007F4FCE0142960E948302CE0105960E9492
:1006C0007F0565960FB6F894DEBF0FBECDBFDF91F4
:1006D000CF9108950F93811133C0A82FB0E0FD0191
:1006E000EE0FFF1FAA0FBB1FAA0FBB1FAA0FBB1F36
:1006F000EA0FFB1FE75DFD4FDA019C91A02FA0954B
:100700009A23DA019C93D9019C91902B9C9371833D
:10071000608302831382148215821682DB019C910E
:10072000092391E009F490E0978390879187909155
:100730002802891730F091E0980F9093280201C0A9
:100740008FEF0F9108958F929F92AF92BF92CF92A9
:10075000DF92EF92FF920E9474046B017C0190E0A3
:100760008FEF3CC0292F30E0F901EE0FFF1F220F61
:10077000331F220F331F220F331FE20FF31FE75DDA
:10078000FD4FA081B181109741F13C91228123233B
:1007900031E009F430E0232F4781341729F0C38278
:1007A000D482E582F68237834381548165817681E4
:1007B00046015701841A950AA60AB70AB501A40191
:1007C000433351056105710540F03085318720873D
:1007D000313019F4211101C0892F9F5F2091280227
:1007E000921708F4BFCFFF90EF90DF90CF90BF90AB
:1007F000AF909F908F9008951F920F920FB60F9217
:1008000011240F931F932F933F934F935F936F93F5
:100810007F938F939F93AF93BF9300913402109176
:100820003502209136023091370290913302B9019E
:10083000A8014F5F5F4F6F4F7F4F83E0890F8D3768
:1008400040F086E8890FB901A8014E5F5F4F6F4FF6
:100850007F4F80933302409334025093350260936C
:100860003602709337028091380290913902A0913C
:100870003A02B0913B020196A11DB11D809338024E
:1008800090933902A0933A02B0933B02BF91AF918B
:100890009F918F917F916F915F914F913F912F9198
:1008A0001F910F910F900FBE0F901F901895F89405
:1008B00014BC83E085BDEEE6F0E08081816080833A
:1008C000109238021092390210923A0210923B02B2
:1008D00010923402109235021092360210923702B2
:1008E00010923302789408952FB7F89431E009C03C
:1008F00060913402709135028091360290913702F6
:1009000030E03111F5CF2FBF08954FB7F89421E0B3
:1009100011C08091380290913902A0913A02B091B1
:100920003B0236B5A89B05C03F3F19F00196A11DBB
:10093000B11D20E02111EDCF4FBFBA2FA92F982F65
:100940008827830F911DA11DB11DBC01CD01660F2C
:10095000771F881F991F660F771F881F991F08959B
:100960001F920F920FB60F9211242F938F939F9384
:10097000EF93FF932091C60080913D028F5F8034FA
:1009800008F080E090913C02891741F0E0913D022F
:10099000F0E0E95BFD4F208380933D02FF91EF91F2
:1009A0009F918F912F910F900FBE0F901F901895D0
:1009B0001F920F920FB60F9211248F939F93AF93B4
:1009C000BF93EF93FF9390913F0280913E02981363
:1009D0000EC0E1ECF0E080818F7D8083A0ECB0E080
:1009E0008C9180648C9380818064808310C0E091BE
:1009F0003E02F0E0E957FD4F80818093C600809170
:100A00003E028F5F803408F080E080933E02FF91C9
:100A1000EF91BF91AF919F918F910F900FBE0F906B
:100A20001F9018951F920F920FB60F9211248F935B
:100A3000EF93FF9388B18F7788B9E1ECF0E0808184
:100A40008F7B8083FF91EF918F910F900FBE0F905E
:100A50001F9018959B01AC0160E472E48FE090E078
:100A60000E941007215031093093C5002093C40023
:100A700086E08093C20088E98093C10087B18068D6
:100A800087B988B18F7788B97894089520913F020B
:100A90002F5F203408F020E090913E022917E1F307
:100AA000E0913F02F0E0E957FD4F808320933F0241
:100AB00088B1806888B9E1ECF0E080818062808351
:100AC000089590913D0280913C029817D1F3E091F6
:100AD0003C02F0E0E95BFD4F808190913C029F5F1A
:100AE000903408F090E090933C02089520913D02EC
:100AF00090913C0281E0291301C080E00895CF93DA
:100B0000DF93EC0103C00E94460521968881811184
:100B1000FACFDF91CF9108958BB188608BB985E3CF
:100B20008A95F1F700008BB1877F8BB908951F92EA
:100B30000F920FB60F9211242F933F934F935F9311
:100B40006F937F938F939F93AF93BF93EF93FF9395
:100B50000E9485044A9B09C0609340027093410241
:100B600080934202909343020DC020914002309145
:100B70004102621B730B709346026093450281E051
:100B800080934402FF91EF91BF91AF919F918F911C
:100B90007F916F915F914F913F912F910F900FBE79
:100BA0000F901F9018958AB188608AB98AB18B7F9F
:100BB0008AB9E9E6F0E080818160808380818D7F61
:100BC00080838DB381608DBB789408950E945A060E
:100BD00088F09F5798F0B92F9927B751B0F0E1F0FE
:100BE000660F771F881F991F1AF0BA95C9F714C0AE
:100BF000B13091F00E947406B1E008950C9474062F
:100C0000672F782F8827B85F39F0B93FCCF38695E6
:100C100077956795B395D9F73EF490958095709543
:100C200061957F4F8F4F9F4F0895E89409C097FBC0
:100C30003EF490958095709561957F4F8F4F9F4FB3
:100C40009923A9F0F92F96E9BB279395F6958795F7
:100C500077956795B795F111F8CFFAF4BB0F11F4BA
:100C600060FF1BC06F5F7F4F8F4F9F4F16C0882361
:100C700011F096E911C0772321F09EE8872F762F97
:100C800005C0662371F096E8862F70E060E02AF0D8
:100C90009A95660F771F881FDAF7880F96958795C4
:100CA00097F9089557FD9058440F551F59F05F3F2D
:100CB00071F04795880F97FB991F61F09F3F79F07E
:100CC00087950895121613061406551FF2CF469500
:100CD000F1DF08C0161617061806991FF1CF869582
:100CE0007105610508940895E894BB276627772766
:100CF000CB0197F908950E948E060C94FF060E947E
:100D0000F10638F00E94F80620F0952311F00C94BB
:100D1000E8060C94EE0611240C9475060E94520607
:100D200070F3959FC1F3950F50E0551F629FF0013E
:100D3000729FBB27F00DB11D639FAA27F00DB11D57
:100D4000AA1F649F6627B00DA11D661F829F2227E0
:100D5000B00DA11D621F739FB00DA11D621F839F67
:100D6000A00D611D221F749F3327A00D611D231F3D
:100D7000849F600D211D822F762F6A2F11249F578B
:100D800050409AF0F1F088234AF0EE0FFF1FBB1F8E
:100D9000661F771F881F91505040A9F79E3F51054D
:100DA00080F00C94E8060C9475065F3FE4F3983EDF
:100DB000D4F3869577956795B795F795E7959F5FF7
:100DC000C1F7FE2B880F911D9695879597F9089589
:100DD00097F99F6780E870E060E008959FEF80ECEE
:100DE000089500240A941616170618060906089591
:100DF00000240A9412161306140605060895092EF7
:100E00000394000C11F4882352F0BB0F40F4BF2B65
:100E100011F460FF04C06F5F7F4F8F4F9F4F0895A5
:100E2000A1E21A2EAA1BBB1BFD010DC0AA1FBB1FEE
:100E3000EE1FFF1FA217B307E407F50720F0A21B60
:100E4000B30BE40BF50B661F771F881F991F1A94CD
:100E500069F760957095809590959B01AC01BD01F7
:100E6000CF010895FB01DC0102C001900D924150B9
:100E70005040D8F70895A8E1B0E042E050E00C946B
:100E800049070196272F0E9458070C945707DC0149
:100E9000CB01FC01F999FECF06C0F2BDE1BDF89A85
:100EA000319600B40D9241505040B8F70895262F66
:100EB000F999FECF92BD81BDF89A019700B4021650
:100EC00039F01FBA20BD0FB6F894FA9AF99A0FBEFE
:060ED0000895F894FFCF25
:100ED60001303132333435363738394142434445AF
:020EE6004600C4
:00000001FF
